{
  "contractName": "DNS",
  "abi": [
    {
      "constant": true,
      "inputs": [],
      "name": "owner",
      "outputs": [
        {
          "name": "",
          "type": "address"
        }
      ],
      "payable": false,
      "stateMutability": "view",
      "type": "function"
    },
    {
      "inputs": [],
      "payable": false,
      "stateMutability": "nonpayable",
      "type": "constructor"
    },
    {
      "anonymous": false,
      "inputs": [
        {
          "indexed": false,
          "name": "accountAddress",
          "type": "address"
        },
        {
          "indexed": false,
          "name": "acquiredString",
          "type": "string"
        }
      ],
      "name": "NewNameClaimed",
      "type": "event"
    },
    {
      "anonymous": false,
      "inputs": [
        {
          "indexed": false,
          "name": "name",
          "type": "string"
        },
        {
          "indexed": false,
          "name": "IPAddress",
          "type": "string"
        }
      ],
      "name": "NamesIPAddressChanged",
      "type": "event"
    },
    {
      "anonymous": false,
      "inputs": [
        {
          "indexed": false,
          "name": "name",
          "type": "string"
        },
        {
          "indexed": false,
          "name": "newOwner",
          "type": "address"
        }
      ],
      "name": "OwnershipTransfered",
      "type": "event"
    },
    {
      "constant": false,
      "inputs": [
        {
          "name": "_name",
          "type": "string"
        }
      ],
      "name": "claimNewName",
      "outputs": [],
      "payable": false,
      "stateMutability": "nonpayable",
      "type": "function"
    },
    {
      "constant": false,
      "inputs": [
        {
          "name": "_name",
          "type": "string"
        },
        {
          "name": "_address",
          "type": "string"
        }
      ],
      "name": "setNamesIPAddress",
      "outputs": [],
      "payable": false,
      "stateMutability": "nonpayable",
      "type": "function"
    },
    {
      "constant": true,
      "inputs": [],
      "name": "listNamesOwnedBy",
      "outputs": [
        {
          "name": "",
          "type": "uint256[]"
        }
      ],
      "payable": false,
      "stateMutability": "view",
      "type": "function"
    },
    {
      "constant": true,
      "inputs": [
        {
          "name": "_id",
          "type": "uint256"
        }
      ],
      "name": "getNameByID",
      "outputs": [
        {
          "name": "",
          "type": "string"
        }
      ],
      "payable": false,
      "stateMutability": "view",
      "type": "function"
    },
    {
      "constant": false,
      "inputs": [
        {
          "name": "_name",
          "type": "string"
        },
        {
          "name": "_receiver",
          "type": "address"
        }
      ],
      "name": "transferOwnershipForFree",
      "outputs": [],
      "payable": false,
      "stateMutability": "nonpayable",
      "type": "function"
    },
    {
      "constant": false,
      "inputs": [
        {
          "name": "_name",
          "type": "string"
        }
      ],
      "name": "makeNameNotOffered",
      "outputs": [],
      "payable": false,
      "stateMutability": "nonpayable",
      "type": "function"
    },
    {
      "constant": false,
      "inputs": [
        {
          "name": "_name",
          "type": "string"
        },
        {
          "name": "_address",
          "type": "address"
        },
        {
          "name": "_wei",
          "type": "uint256"
        }
      ],
      "name": "makeNamePrivatlyOffered",
      "outputs": [],
      "payable": false,
      "stateMutability": "nonpayable",
      "type": "function"
    },
    {
      "constant": false,
      "inputs": [
        {
          "name": "_name",
          "type": "string"
        }
      ],
      "name": "acceptPrivateOffer",
      "outputs": [],
      "payable": true,
      "stateMutability": "payable",
      "type": "function"
    },
    {
      "constant": false,
      "inputs": [
        {
          "name": "_name",
          "type": "string"
        },
        {
          "name": "_wei",
          "type": "uint256"
        }
      ],
      "name": "makeNamePubliclyOffered",
      "outputs": [],
      "payable": false,
      "stateMutability": "nonpayable",
      "type": "function"
    },
    {
      "constant": false,
      "inputs": [
        {
          "name": "_name",
          "type": "string"
        }
      ],
      "name": "acceptPublicOffer",
      "outputs": [],
      "payable": true,
      "stateMutability": "payable",
      "type": "function"
    }
  ],
  "bytecode": "0x608060405234801561001057600080fd5b50336000806101000a81548173ffffffffffffffffffffffffffffffffffffffff021916908373ffffffffffffffffffffffffffffffffffffffff16021790555060006005819055506133a3806100686000396000f3fe6080604052600436106100af576000357c0100000000000000000000000000000000000000000000000000000000900463ffffffff1680631fedc8b5146100b45780632fdd4427146101205780633a674532146101db578063478fc86a1461033a5780634ffa41ac1461042c57806350bfad45146104f457806367b4a818146105a85780636b0dd61d146106905780637a04abe8146107585780638da5cb5b146108135780639664e5e61461086a575b600080fd5b3480156100c057600080fd5b506100c961093c565b6040518080602001828103825283818151815260200191508051906020019060200280838360005b8381101561010c5780820151818401526020810190506100f1565b505050509050019250505060405180910390f35b6101d96004803603602081101561013657600080fd5b810190808035906020019064010000000081111561015357600080fd5b82018360208201111561016557600080fd5b8035906020019184600183028401116401000000008311171561018757600080fd5b91908080601f016020809104026020016040519081016040528093929190818152602001838380828437600081840152601f19601f820116905080830192505050505050509192919290505050610bb7565b005b3480156101e757600080fd5b50610338600480360360408110156101fe57600080fd5b810190808035906020019064010000000081111561021b57600080fd5b82018360208201111561022d57600080fd5b8035906020019184600183028401116401000000008311171561024f57600080fd5b91908080601f016020809104026020016040519081016040528093929190818152602001838380828437600081840152601f19601f820116905080830192505050505050509192919290803590602001906401000000008111156102b257600080fd5b8201836020820111156102c457600080fd5b803590602001918460018302840111640100000000831117156102e657600080fd5b91908080601f016020809104026020016040519081016040528093929190818152602001838380828437600081840152601f19601f8201169050808301925050505050505091929192905050506113c6565b005b34801561034657600080fd5b5061042a6004803603606081101561035d57600080fd5b810190808035906020019064010000000081111561037a57600080fd5b82018360208201111561038c57600080fd5b803590602001918460018302840111640100000000831117156103ae57600080fd5b91908080601f016020809104026020016040519081016040528093929190818152602001838380828437600081840152601f19601f820116905080830192505050505050509192919290803573ffffffffffffffffffffffffffffffffffffffff1690602001909291908035906020019092919050505061177f565b005b34801561043857600080fd5b506104f26004803603602081101561044f57600080fd5b810190808035906020019064010000000081111561046c57600080fd5b82018360208201111561047e57600080fd5b803590602001918460018302840111640100000000831117156104a057600080fd5b91908080601f016020809104026020016040519081016040528093929190818152602001838380828437600081840152601f19601f820116905080830192505050505050509192919290505050611bed565b005b34801561050057600080fd5b5061052d6004803603602081101561051757600080fd5b8101908080359060200190929190505050611ea9565b6040518080602001828103825283818151815260200191508051906020019080838360005b8381101561056d578082015181840152602081019050610552565b50505050905090810190601f16801561059a5780820380516001836020036101000a031916815260200191505b509250505060405180910390f35b3480156105b457600080fd5b5061068e600480360360408110156105cb57600080fd5b81019080803590602001906401000000008111156105e857600080fd5b8201836020820111156105fa57600080fd5b8035906020019184600183028401116401000000008311171561061c57600080fd5b91908080601f016020809104026020016040519081016040528093929190818152602001838380828437600081840152601f19601f820116905080830192505050505050509192919290803573ffffffffffffffffffffffffffffffffffffffff169060200190929190505050612025565b005b34801561069c57600080fd5b50610756600480360360208110156106b357600080fd5b81019080803590602001906401000000008111156106d057600080fd5b8201836020820111156106e257600080fd5b8035906020019184600183028401116401000000008311171561070457600080fd5b91908080601f016020809104026020016040519081016040528093929190818152602001838380828437600081840152601f19601f820116905080830192505050505050509192919290505050612378565b005b6108116004803603602081101561076e57600080fd5b810190808035906020019064010000000081111561078b57600080fd5b82018360208201111561079d57600080fd5b803590602001918460018302840111640100000000831117156107bf57600080fd5b91908080601f016020809104026020016040519081016040528093929190818152602001838380828437600081840152601f19601f820116905080830192505050505050509192919290505050612837565b005b34801561081f57600080fd5b50610828612eed565b604051808273ffffffffffffffffffffffffffffffffffffffff1673ffffffffffffffffffffffffffffffffffffffff16815260200191505060405180910390f35b34801561087657600080fd5b5061093a6004803603604081101561088d57600080fd5b81019080803590602001906401000000008111156108aa57600080fd5b8201836020820111156108bc57600080fd5b803590602001918460018302840111640100000000831117156108de57600080fd5b91908080601f016020809104026020016040519081016040528093929190818152602001838380828437600081840152601f19601f82011690508083019250505050505050919291929080359060200190929190505050612f12565b005b606080600160003373ffffffffffffffffffffffffffffffffffffffff1673ffffffffffffffffffffffffffffffffffffffff168152602001908152602001600020546040519080825280602002602001820160405280156109ad5781602001602082028038833980820191505090505b509050600080905060008090505b600554811015610ad2573373ffffffffffffffffffffffffffffffffffffffff166003600260008481526020019081526020016000206040518082805460018160011615610100020316600290048015610a4c5780601f10610a2a576101008083540402835291820191610a4c565b820191906000526020600020905b815481529060010190602001808311610a38575b5050915050908152602001604051809103902060000160009054906101000a900473ffffffffffffffffffffffffffffffffffffffff1673ffffffffffffffffffffffffffffffffffffffff161415610ac557808383815181101515610aae57fe5b906020019060200201818152505081806001019250505b80806001019150506109bb565b50600160003373ffffffffffffffffffffffffffffffffffffffff1673ffffffffffffffffffffffffffffffffffffffff1681526020019081526020016000205481141515610baf576040517f08c379a000000000000000000000000000000000000000000000000000000000815260040180806020018281038252603e8152602001807f496e7465726e616c204572726f723a204e756d626572206f66206e616d65732081526020017f72657472696576656420213d206b6e6f776e206f776e6564206e616d6573000081525060400191505060405180910390fd5b819250505090565b806001806002811115610bc657fe5b6003836040518082805190602001908083835b602083101515610bfe5780518252602082019150602081019050602083039250610bd9565b6001836020036101000a038019825116818451168082178552505050505050905001915050908152602001604051809103902060030160009054906101000a900460ff166002811115610c4d57fe5b141515610d0e576040517f08c379a00000000000000000000000000000000000000000000000000000000081526004018080602001828103825260438152602001807f6f666665725374617465206f66206e616d65206973206e6f742074686520737481526020017f617465206e656564656420746f20707265666f726d20746869732066756e637481526020017f696f6e000000000000000000000000000000000000000000000000000000000081525060600191505060405180910390fd5b823373ffffffffffffffffffffffffffffffffffffffff166003826040518082805190602001908083835b602083101515610d5e5780518252602082019150602081019050602083039250610d39565b6001836020036101000a038019825116818451168082178552505050505050905001915050908152602001604051809103902060050160009054906101000a900473ffffffffffffffffffffffffffffffffffffffff1673ffffffffffffffffffffffffffffffffffffffff16141515610e66576040517f08c379a00000000000000000000000000000000000000000000000000000000081526004018080602001828103825260408152602001807f6d73672e73656e646572206973206e6f742074686520617574686f72697a656481526020017f207265636569766572206f6620746869732070726976617465206f666665722e81525060400191505060405180910390fd5b6003846040518082805190602001908083835b602083101515610e9e5780518252602082019150602081019050602083039250610e79565b6001836020036101000a038019825116818451168082178552505050505050905001915050908152602001604051809103902060040154803410151515610f4d576040517f08c379a00000000000000000000000000000000000000000000000000000000081526004018080602001828103825260188152602001807f416d6f756e7420706169642c206e6f7420656e6f7567682e000000000000000081525060200191505060405180910390fd5b8460006003876040518082805190602001908083835b602083101515610f885780518252602082019150602081019050602083039250610f63565b6001836020036101000a038019825116818451168082178552505050505050905001915050908152602001604051809103902060030160006101000a81548160ff02191690836002811115610fd957fe5b0217905550600160006003886040518082805190602001908083835b60208310151561101a5780518252602082019150602081019050602083039250610ff5565b6001836020036101000a038019825116818451168082178552505050505050905001915050908152602001604051809103902060000160009054906101000a900473ffffffffffffffffffffffffffffffffffffffff1673ffffffffffffffffffffffffffffffffffffffff1673ffffffffffffffffffffffffffffffffffffffff1681526020019081526020016000206000815480929190600190039190505550600160003373ffffffffffffffffffffffffffffffffffffffff1673ffffffffffffffffffffffffffffffffffffffff168152602001908152602001600020600081548092919060010191905055506003866040518082805190602001908083835b602083101515611143578051825260208201915060208101905060208303925061111e565b6001836020036101000a038019825116818451168082178552505050505050905001915050908152602001604051809103902060000160009054906101000a900473ffffffffffffffffffffffffffffffffffffffff1673ffffffffffffffffffffffffffffffffffffffff166108fc6003886040518082805190602001908083835b6020831015156111eb57805182526020820191506020810190506020830392506111c6565b6001836020036101000a0380198251168184511680821785525050505050509050019150509081526020016040518091039020600401549081150290604051600060405180830381858888f1935050505015801561124d573d6000803e3d6000fd5b50336003876040518082805190602001908083835b6020831015156112875780518252602082019150602081019050602083039250611262565b6001836020036101000a038019825116818451168082178552505050505050905001915050908152602001604051809103902060000160006101000a81548173ffffffffffffffffffffffffffffffffffffffff021916908373ffffffffffffffffffffffffffffffffffffffff16021790555060006003826040518082805190602001908083835b6020831015156113355780518252602082019150602081019050602083039250611310565b6001836020036101000a0380198251168184511680821785525050505050509050019150509081526020016040518091039020600401549050600081340390503373ffffffffffffffffffffffffffffffffffffffff166108fc829081150290604051600060405180830381858888f193505050501580156113bb573d6000803e3d6000fd5b505050505050505050565b81600115156004826040518082805190602001908083835b60208310151561140357805182526020820191506020810190506020830392506113de565b6001836020036101000a038019825116818451168082178552505050505050905001915050908152602001604051809103902060009054906101000a900460ff1615151415156114bb576040517f08c379a00000000000000000000000000000000000000000000000000000000081526004018080602001828103825260208152602001807f446f6d61696e206e616d65206e6f7420796574206265656e20636c61696d656481525060200191505060405180910390fd5b823373ffffffffffffffffffffffffffffffffffffffff166003826040518082805190602001908083835b60208310151561150b57805182526020820191506020810190506020830392506114e6565b6001836020036101000a038019825116818451168082178552505050505050905001915050908152602001604051809103902060000160009054906101000a900473ffffffffffffffffffffffffffffffffffffffff1673ffffffffffffffffffffffffffffffffffffffff161415156115ed576040517f08c379a000000000000000000000000000000000000000000000000000000000815260040180806020018281038252601d8152602001807f596f7520617265206e6f742074686973206e616d652773206f776e657200000081525060200191505060405180910390fd5b826003856040518082805190602001908083835b6020831015156116265780518252602082019150602081019050602083039250611601565b6001836020036101000a0380198251168184511680821785525050505050509050019150509081526020016040518091039020600201908051906020019061166f9291906132d2565b507fa986f10cfb83105a20df3e1307d4a528b680b6bc520feb9ee68ac76377160e308484604051808060200180602001838103835285818151815260200191508051906020019080838360005b838110156116d75780820151818401526020810190506116bc565b50505050905090810190601f1680156117045780820380516001836020036101000a031916815260200191505b50838103825284818151815260200191508051906020019080838360005b8381101561173d578082015181840152602081019050611722565b50505050905090810190601f16801561176a5780820380516001836020036101000a031916815260200191505b5094505050505060405180910390a150505050565b82600115156004826040518082805190602001908083835b6020831015156117bc5780518252602082019150602081019050602083039250611797565b6001836020036101000a038019825116818451168082178552505050505050905001915050908152602001604051809103902060009054906101000a900460ff161515141515611874576040517f08c379a00000000000000000000000000000000000000000000000000000000081526004018080602001828103825260208152602001807f446f6d61696e206e616d65206e6f7420796574206265656e20636c61696d656481525060200191505060405180910390fd5b833373ffffffffffffffffffffffffffffffffffffffff166003826040518082805190602001908083835b6020831015156118c4578051825260208201915060208101905060208303925061189f565b6001836020036101000a038019825116818451168082178552505050505050905001915050908152602001604051809103902060000160009054906101000a900473ffffffffffffffffffffffffffffffffffffffff1673ffffffffffffffffffffffffffffffffffffffff161415156119a6576040517f08c379a000000000000000000000000000000000000000000000000000000000815260040180806020018281038252601d8152602001807f596f7520617265206e6f742074686973206e616d652773206f776e657200000081525060200191505060405180910390fd5b60006003866040518082805190602001908083835b6020831015156119e057805182526020820191506020810190506020830392506119bb565b6001836020036101000a038019825116818451168082178552505050505050905001915050908152602001604051809103902060030160006101000a81548160ff02191690836002811115611a3157fe5b0217905550826003866040518082805190602001908083835b602083101515611a6f5780518252602082019150602081019050602083039250611a4a565b6001836020036101000a038019825116818451168082178552505050505050905001915050908152602001604051809103902060040181905550836003866040518082805190602001908083835b602083101515611ae25780518252602082019150602081019050602083039250611abd565b6001836020036101000a038019825116818451168082178552505050505050905001915050908152602001604051809103902060050160006101000a81548173ffffffffffffffffffffffffffffffffffffffff021916908373ffffffffffffffffffffffffffffffffffffffff16021790555060016003866040518082805190602001908083835b602083101515611b905780518252602082019150602081019050602083039250611b6b565b6001836020036101000a038019825116818451168082178552505050505050905001915050908152602001604051809103902060030160006101000a81548160ff02191690836002811115611be157fe5b02179055505050505050565b80600115156004826040518082805190602001908083835b602083101515611c2a5780518252602082019150602081019050602083039250611c05565b6001836020036101000a038019825116818451168082178552505050505050905001915050908152602001604051809103902060009054906101000a900460ff161515141515611ce2576040517f08c379a00000000000000000000000000000000000000000000000000000000081526004018080602001828103825260208152602001807f446f6d61696e206e616d65206e6f7420796574206265656e20636c61696d656481525060200191505060405180910390fd5b813373ffffffffffffffffffffffffffffffffffffffff166003826040518082805190602001908083835b602083101515611d325780518252602082019150602081019050602083039250611d0d565b6001836020036101000a038019825116818451168082178552505050505050905001915050908152602001604051809103902060000160009054906101000a900473ffffffffffffffffffffffffffffffffffffffff1673ffffffffffffffffffffffffffffffffffffffff16141515611e14576040517f08c379a000000000000000000000000000000000000000000000000000000000815260040180806020018281038252601d8152602001807f596f7520617265206e6f742074686973206e616d652773206f776e657200000081525060200191505060405180910390fd5b60006003846040518082805190602001908083835b602083101515611e4e5780518252602082019150602081019050602083039250611e29565b6001836020036101000a038019825116818451168082178552505050505050905001915050908152602001604051809103902060030160006101000a81548160ff02191690836002811115611e9f57fe5b0217905550505050565b60608160055481101515611f71576040517f08c379a000000000000000000000000000000000000000000000000000000000815260040180806020018281038252604b8152602001807f52657175657374656420494420697320686967686572207468616e206375727281526020017f656e74206e756d626572206f6620636c61696d6564206e616d65732c206f722081526020017f6c657373207468616e203000000000000000000000000000000000000000000081525060600191505060405180910390fd5b600260008481526020019081526020016000208054600181600116156101000203166002900480601f0160208091040260200160405190810160405280929190818152602001828054600181600116156101000203166002900480156120185780601f10611fed57610100808354040283529160200191612018565b820191906000526020600020905b815481529060010190602001808311611ffb57829003601f168201915b5050505050915050919050565b813373ffffffffffffffffffffffffffffffffffffffff166003826040518082805190602001908083835b6020831015156120755780518252602082019150602081019050602083039250612050565b6001836020036101000a038019825116818451168082178552505050505050905001915050908152602001604051809103902060000160009054906101000a900473ffffffffffffffffffffffffffffffffffffffff1673ffffffffffffffffffffffffffffffffffffffff16141515612157576040517f08c379a000000000000000000000000000000000000000000000000000000000815260040180806020018281038252601d8152602001807f596f7520617265206e6f742074686973206e616d652773206f776e657200000081525060200191505060405180910390fd5b816003846040518082805190602001908083835b602083101515612190578051825260208201915060208101905060208303925061216b565b6001836020036101000a038019825116818451168082178552505050505050905001915050908152602001604051809103902060000160006101000a81548173ffffffffffffffffffffffffffffffffffffffff021916908373ffffffffffffffffffffffffffffffffffffffff160217905550600160003373ffffffffffffffffffffffffffffffffffffffff1673ffffffffffffffffffffffffffffffffffffffff1681526020019081526020016000206000815480929190600190039190505550600160008373ffffffffffffffffffffffffffffffffffffffff1673ffffffffffffffffffffffffffffffffffffffff168152602001908152602001600020600081548092919060010191905055507fbaea0f128010226ee77abb3bb428f0f0b8cc14b5722c87a68cda777935ad65f6838360405180806020018373ffffffffffffffffffffffffffffffffffffffff1673ffffffffffffffffffffffffffffffffffffffff168152602001828103825284818151815260200191508051906020019080838360005b8381101561233857808201518184015260208101905061231d565b50505050905090810190601f1680156123655780820380516001836020036101000a031916815260200191505b50935050505060405180910390a1505050565b80600115156004826040518082805190602001908083835b6020831015156123b55780518252602082019150602081019050602083039250612390565b6001836020036101000a038019825116818451168082178552505050505050905001915050908152602001604051809103902060009054906101000a900460ff16151514151515612494576040517f08c379a00000000000000000000000000000000000000000000000000000000081526004018080602001828103825260248152602001807f446f6d61696e206e616d652068617320616c7265616479206265656e20636c6181526020017f696d65640000000000000000000000000000000000000000000000000000000081525060400191505060405180910390fd5b60016004836040518082805190602001908083835b6020831015156124ce57805182526020820191506020810190506020830392506124a9565b6001836020036101000a038019825116818451168082178552505050505050905001915050908152602001604051809103902060006101000a81548160ff0219169083151502179055508160026000600554815260200190815260200160002090805190602001906125419291906132d2565b50600560008154809291906001019190505550336003836040518082805190602001908083835b60208310151561258d5780518252602082019150602081019050602083039250612568565b6001836020036101000a038019825116818451168082178552505050505050905001915050908152602001604051809103902060000160006101000a81548173ffffffffffffffffffffffffffffffffffffffff021916908373ffffffffffffffffffffffffffffffffffffffff160217905550816003836040518082805190602001908083835b60208310151561263a5780518252602082019150602081019050602083039250612615565b6001836020036101000a038019825116818451168082178552505050505050905001915050908152602001604051809103902060010190805190602001906126839291906132d2565b5060006003836040518082805190602001908083835b6020831015156126be5780518252602082019150602081019050602083039250612699565b6001836020036101000a038019825116818451168082178552505050505050905001915050908152602001604051809103902060030160006101000a81548160ff0219169083600281111561270f57fe5b0217905550600160003373ffffffffffffffffffffffffffffffffffffffff1673ffffffffffffffffffffffffffffffffffffffff168152602001908152602001600020600081548092919060010191905055507f82a1fce00208e4f53d1a4ffab7104d4d71f997881859f9cacdd2521dc42969ff3383604051808373ffffffffffffffffffffffffffffffffffffffff1673ffffffffffffffffffffffffffffffffffffffff16815260200180602001828103825283818151815260200191508051906020019080838360005b838110156127f85780820151818401526020810190506127dd565b50505050905090810190601f1680156128255780820380516001836020036101000a031916815260200191505b50935050505060405180910390a15050565b80600280600281111561284657fe5b6003836040518082805190602001908083835b60208310151561287e5780518252602082019150602081019050602083039250612859565b6001836020036101000a038019825116818451168082178552505050505050905001915050908152602001604051809103902060030160009054906101000a900460ff1660028111156128cd57fe5b14151561298e576040517f08c379a00000000000000000000000000000000000000000000000000000000081526004018080602001828103825260438152602001807f6f666665725374617465206f66206e616d65206973206e6f742074686520737481526020017f617465206e656564656420746f20707265666f726d20746869732066756e637481526020017f696f6e000000000000000000000000000000000000000000000000000000000081525060600191505060405180910390fd5b6003836040518082805190602001908083835b6020831015156129c657805182526020820191506020810190506020830392506129a1565b6001836020036101000a038019825116818451168082178552505050505050905001915050908152602001604051809103902060040154803410151515612a75576040517f08c379a00000000000000000000000000000000000000000000000000000000081526004018080602001828103825260188152602001807f416d6f756e7420706169642c206e6f7420656e6f7567682e000000000000000081525060200191505060405180910390fd5b8360006003866040518082805190602001908083835b602083101515612ab05780518252602082019150602081019050602083039250612a8b565b6001836020036101000a038019825116818451168082178552505050505050905001915050908152602001604051809103902060030160006101000a81548160ff02191690836002811115612b0157fe5b0217905550600160006003876040518082805190602001908083835b602083101515612b425780518252602082019150602081019050602083039250612b1d565b6001836020036101000a038019825116818451168082178552505050505050905001915050908152602001604051809103902060000160009054906101000a900473ffffffffffffffffffffffffffffffffffffffff1673ffffffffffffffffffffffffffffffffffffffff1673ffffffffffffffffffffffffffffffffffffffff1681526020019081526020016000206000815480929190600190039190505550600160003373ffffffffffffffffffffffffffffffffffffffff1673ffffffffffffffffffffffffffffffffffffffff168152602001908152602001600020600081548092919060010191905055506003856040518082805190602001908083835b602083101515612c6b5780518252602082019150602081019050602083039250612c46565b6001836020036101000a038019825116818451168082178552505050505050905001915050908152602001604051809103902060000160009054906101000a900473ffffffffffffffffffffffffffffffffffffffff1673ffffffffffffffffffffffffffffffffffffffff166108fc6003876040518082805190602001908083835b602083101515612d135780518252602082019150602081019050602083039250612cee565b6001836020036101000a0380198251168184511680821785525050505050509050019150509081526020016040518091039020600401549081150290604051600060405180830381858888f19350505050158015612d75573d6000803e3d6000fd5b50336003866040518082805190602001908083835b602083101515612daf5780518252602082019150602081019050602083039250612d8a565b6001836020036101000a038019825116818451168082178552505050505050905001915050908152602001604051809103902060000160006101000a81548173ffffffffffffffffffffffffffffffffffffffff021916908373ffffffffffffffffffffffffffffffffffffffff16021790555060006003826040518082805190602001908083835b602083101515612e5d5780518252602082019150602081019050602083039250612e38565b6001836020036101000a0380198251168184511680821785525050505050509050019150509081526020016040518091039020600401549050600081340390503373ffffffffffffffffffffffffffffffffffffffff166108fc829081150290604051600060405180830381858888f19350505050158015612ee3573d6000803e3d6000fd5b5050505050505050565b6000809054906101000a900473ffffffffffffffffffffffffffffffffffffffff1681565b81600115156004826040518082805190602001908083835b602083101515612f4f5780518252602082019150602081019050602083039250612f2a565b6001836020036101000a038019825116818451168082178552505050505050905001915050908152602001604051809103902060009054906101000a900460ff161515141515613007576040517f08c379a00000000000000000000000000000000000000000000000000000000081526004018080602001828103825260208152602001807f446f6d61696e206e616d65206e6f7420796574206265656e20636c61696d656481525060200191505060405180910390fd5b823373ffffffffffffffffffffffffffffffffffffffff166003826040518082805190602001908083835b6020831015156130575780518252602082019150602081019050602083039250613032565b6001836020036101000a038019825116818451168082178552505050505050905001915050908152602001604051809103902060000160009054906101000a900473ffffffffffffffffffffffffffffffffffffffff1673ffffffffffffffffffffffffffffffffffffffff16141515613139576040517f08c379a000000000000000000000000000000000000000000000000000000000815260040180806020018281038252601d8152602001807f596f7520617265206e6f742074686973206e616d652773206f776e657200000081525060200191505060405180910390fd5b60006003856040518082805190602001908083835b602083101515613173578051825260208201915060208101905060208303925061314e565b6001836020036101000a038019825116818451168082178552505050505050905001915050908152602001604051809103902060030160006101000a81548160ff021916908360028111156131c457fe5b0217905550826003856040518082805190602001908083835b60208310151561320257805182526020820191506020810190506020830392506131dd565b6001836020036101000a03801982511681845116808217855250505050505090500191505090815260200160405180910390206004018190555060026003856040518082805190602001908083835b6020831015156132765780518252602082019150602081019050602083039250613251565b6001836020036101000a038019825116818451168082178552505050505050905001915050908152602001604051809103902060030160006101000a81548160ff021916908360028111156132c757fe5b021790555050505050565b828054600181600116156101000203166002900490600052602060002090601f016020900481019282601f1061331357805160ff1916838001178555613341565b82800160010185558215613341579182015b82811115613340578251825591602001919060010190613325565b5b50905061334e9190613352565b5090565b61337491905b80821115613370576000816000905550600101613358565b5090565b9056fea165627a7a7230582014decd79d5d8c2d95b75289d8dc8b7be26683131c5b55b3e82ff0cde870f884d0029",
  "source": "pragma solidity ^0.5.0;\ncontract DNS {\n\n    //\n    // State variables\n    //\n\n    address public owner;\n\n    mapping (address => uint) ownerNameCount;   //number of names in existance\n    mapping (uint => string) numberToName;   //(used to sort through all names)\n    mapping (string => DomainName) domainNames; //gets name items from name\n    mapping (string => bool) private claimed;   //stors wether a name has been claimed yet\n\n    enum OfferState {NotOffering, PrivateOffering, PublicOffering}\n\n    struct DomainName {\n        address payable owner;\n        string name;\n        string IPAddress;\n        OfferState offerState;\n        uint offerPrice;\n        address offerAddress;\n    }\n\n    uint numberOfClaimedNames;\n\n    //\n    // Events - publicize actions to external listeners\n    //\n\n    event NewNameClaimed(address accountAddress, string acquiredString);\n    event NamesIPAddressChanged(string name, string IPAddress);\n    event OwnershipTransfered(string name, address newOwner);\n\n    // \n    // Modifiers\n    // \n\n    modifier ownsName(string memory _name){\n        require(domainNames[_name].owner == msg.sender, \"You are not this name's owner\");\n        _;\n    }\n    modifier notClaimed(string memory _name){\n        require(claimed[_name] != true, \"Domain name has already been claimed\");\n        _;\n    }\n    modifier isClaimed(string memory _name){\n        require(claimed[_name] == true, \"Domain name not yet been claimed\");\n        _;\n    }\n    modifier idExists(uint _id){\n        require(_id < numberOfClaimedNames, \"Requested ID is higher than current number of claimed names, or less than 0\");\n        _;\n    }\n\n    modifier paidEnough(uint _price) {require(msg.value >= _price,\"Amount paid, not enough.\"); _;}\n\n    modifier checkValue(string memory _name) {\n        //refund them after pay for item (why it is before, _ checks for logic before func)\n        _;\n        uint _price = domainNames[_name].offerPrice;\n        uint amountToRefund = msg.value - _price;\n        msg.sender.transfer(amountToRefund);\n    }\n\n    modifier validReceiverOf(string memory _name)\n    {\n        require(domainNames[_name].offerAddress == msg.sender, \"msg.sender is not the authorized receiver of this private offer.\");\n        _;\n    }\n\n    modifier offerStateOfNameIs(string memory _name, OfferState _state)\n    {\n        require(domainNames[_name].offerState == _state, \"offerState of name is not the state needed to preform this function\");\n        _;\n    }\n\n    //\n    // Functions\n    //\n\n    /** @notice Set the owner to the creator of this contract */\n    constructor() public {\n        owner = msg.sender;\n        numberOfClaimedNames = 0;\n    }\n\n    /** @notice Gives msg.sender ownership of Domain Name if it's unclaimed\n        @param _name name of the domain which is attempting to be claimed\n     */\n    function claimNewName(string memory _name)\n        public\n        notClaimed(_name)\n    {\n        claimed[_name] = true;\n        numberToName[numberOfClaimedNames] = _name;     //order is important\n        numberOfClaimedNames++;                         //order is important\n        domainNames[_name].owner = msg.sender;\n        domainNames[_name].name = _name;\n        domainNames[_name].offerState = OfferState.NotOffering;\n        ownerNameCount[msg.sender]++;   \n        emit NewNameClaimed(msg.sender, _name);\n    }\n\n    /** @notice Sets name's corresponding IP address.\n        @param _name Name which is having it's corresponding IP address set.\n        @param _address IP Address which will be stored under specified name.\n     */\n    function setNamesIPAddress(string memory _name, string memory _address)\n        public\n        isClaimed(_name)\n        ownsName(_name)\n    {\n        domainNames[_name].IPAddress = _address;\n        emit NamesIPAddressChanged(_name, _address);\n    }\n\n    /** @notice Returns list of uints, corresponding to all of msg.sender's owned Names \n        @return uint[] An array of IDs who's corresponding names are owned by msg.sender\n    */\n    function listNamesOwnedBy()\n        external\n        view\n        returns(uint[] memory)\n    {\n        uint[] memory owned = new uint[](ownerNameCount[msg.sender]);\n        uint count = 0;\n        for(uint i = 0; i < numberOfClaimedNames; i++){\n            if(domainNames[numberToName[i]].owner == msg.sender){\n                owned[count] = i;\n                count++;\n            }\n        }\n        require(count == ownerNameCount[msg.sender], \"Internal Error: Number of names retrieved != known owned names\");\n        return owned;\n    }\n\n    /** @notice returns the name of a corresponding ID\n        @param _id uint ID which corresponds to a name\n        @return string The name corresponding to the given ID\n    */\n    function getNameByID(uint _id)\n        external\n        view\n        idExists(_id)\n        returns(string memory)\n    {\n        return numberToName[_id];\n    }\n\n    /** @notice lets msg.sender transfer ownership of one of their names to another address\n        @param _name name of the address you are transfering ownership of\n        @param _receiver address you are transfering ownership of name to\n    */\n    function transferOwnershipForFree(string memory _name, address payable _receiver)\n        public\n        ownsName(_name)\n    {\n        domainNames[_name].owner = _receiver;\n        ownerNameCount[msg.sender]--;\n        ownerNameCount[_receiver]++;\n        emit OwnershipTransfered(_name, _receiver);\n    }\n\n    /** @notice Sets name to NotOffered for sale\n        @param _name Name who's offerStatus is being changed\n    */\n    function makeNameNotOffered(string memory _name) public\n        isClaimed(_name)\n        ownsName(_name)\n    {\n        domainNames[_name].offerState = OfferState.NotOffering;  \n    }\n\n    /** @notice offers ownership of a name to specific address in exchange for specified amount of funds.\n        @param _name The Name who's ownership is being offered\n        @param _address The address who the name is being offered to\n        @param _wei The amount of Wei required for transfer of ownership\n    */\n    function makeNamePrivatlyOffered(string memory _name, address _address, uint _wei) public\n        isClaimed(_name)\n        ownsName(_name)\n    {\n        domainNames[_name].offerState = OfferState.NotOffering;     //assure no one can buy while contract changes price\n        domainNames[_name].offerPrice = _wei;\n        domainNames[_name].offerAddress = _address;\n        domainNames[_name].offerState = OfferState.PrivateOffering;\n    }\n\n    /** @notice Receives required amount for offered name and transfer's ownership of name\n        @param _name Name who's ownership is being transfered\n    */\n    function acceptPrivateOffer(string memory _name) public payable\n        offerStateOfNameIs(_name, OfferState.PrivateOffering)   //make sure OfferState of name is PriavateOffering\n        validReceiverOf(_name)\n        paidEnough(domainNames[_name].offerPrice)\n        checkValue(_name)       //returns any extra funds\n    {\n        domainNames[_name].offerState = OfferState.NotOffering;\n        ownerNameCount[domainNames[_name].owner]--;\n        ownerNameCount[msg.sender]++;\n        domainNames[_name].owner.transfer(domainNames[_name].offerPrice);   //pays previous owner requested amount\n        domainNames[_name].owner = msg.sender;\n    }\n\n    /** @notice Offers name to the public for specified amount of ether\n        @param _name The Name who's ownership is being offered\n        @param _wei The amount of Wei required for transfer of ownership\n    */\n    function makeNamePubliclyOffered(string memory _name, uint _wei) public\n        isClaimed(_name)\n        ownsName(_name)\n    {\n        domainNames[_name].offerState = OfferState.NotOffering;     //assure no one can buy while contract changes price\n        domainNames[_name].offerPrice = _wei;\n        domainNames[_name].offerState = OfferState.PublicOffering;\n    }\n\n    /** @notice receives requested funds for offered name and transferes ownership of name to msg.sender\n        @param _name Name who's ownership is being transfered\n    */\n    function acceptPublicOffer(string memory _name) public payable\n        offerStateOfNameIs(_name, OfferState.PublicOffering)   //make sure OfferState of name is PublicOffering\n        paidEnough(domainNames[_name].offerPrice)\n        checkValue(_name)       //returns any extra funds\n    {\n        domainNames[_name].offerState = OfferState.NotOffering;\n        ownerNameCount[domainNames[_name].owner]--;\n        ownerNameCount[msg.sender]++;\n        domainNames[_name].owner.transfer(domainNames[_name].offerPrice);   //pays previous owner requested amount\n        domainNames[_name].owner = msg.sender;\n    }\n}",
  "sourcePath": "/home/logan-king/Desktop/ConsenSys/FinalProject/contracts/DNS.sol",
  "compiler": {
    "name": "solc",
    "version": "0.5.0+commit.1d4f565a.Emscripten.clang"
  },
  "schemaVersion": "3.0.1",
  "updatedAt": "2019-01-26T06:19:26.272Z",
  "devdoc": {
    "methods": {
      "acceptPrivateOffer(string)": {
        "params": {
          "_name": "Name who's ownership is being transfered"
        }
      },
      "acceptPublicOffer(string)": {
        "params": {
          "_name": "Name who's ownership is being transfered"
        }
      },
      "claimNewName(string)": {
        "params": {
          "_name": "name of the domain which is attempting to be claimed"
        }
      },
      "getNameByID(uint256)": {
        "params": {
          "_id": "uint ID which corresponds to a name"
        },
        "return": "string The name corresponding to the given ID"
      },
      "listNamesOwnedBy()": {
        "return": "uint[] An array of IDs who's corresponding names are owned by msg.sender"
      },
      "makeNameNotOffered(string)": {
        "params": {
          "_name": "Name who's offerStatus is being changed"
        }
      },
      "makeNamePrivatlyOffered(string,address,uint256)": {
        "params": {
          "_address": "The address who the name is being offered to",
          "_name": "The Name who's ownership is being offered",
          "_wei": "The amount of Wei required for transfer of ownership"
        }
      },
      "makeNamePubliclyOffered(string,uint256)": {
        "params": {
          "_name": "The Name who's ownership is being offered",
          "_wei": "The amount of Wei required for transfer of ownership"
        }
      },
      "setNamesIPAddress(string,string)": {
        "params": {
          "_address": "IP Address which will be stored under specified name.",
          "_name": "Name which is having it's corresponding IP address set."
        }
      },
      "transferOwnershipForFree(string,address)": {
        "params": {
          "_name": "name of the address you are transfering ownership of",
          "_receiver": "address you are transfering ownership of name to"
        }
      }
    }
  },
  "userdoc": {
    "methods": {
      "acceptPrivateOffer(string)": {
        "notice": "Receives required amount for offered name and transfer's ownership of name"
      },
      "acceptPublicOffer(string)": {
        "notice": "receives requested funds for offered name and transferes ownership of name to msg.sender"
      },
      "claimNewName(string)": {
        "notice": "Gives msg.sender ownership of Domain Name if it's unclaimed"
      },
      "constructor": "Set the owner to the creator of this contract ",
      "getNameByID(uint256)": {
        "notice": "returns the name of a corresponding ID"
      },
      "listNamesOwnedBy()": {
        "notice": "Returns list of uints, corresponding to all of msg.sender's owned Names "
      },
      "makeNameNotOffered(string)": {
        "notice": "Sets name to NotOffered for sale"
      },
      "makeNamePrivatlyOffered(string,address,uint256)": {
        "notice": "offers ownership of a name to specific address in exchange for specified amount of funds."
      },
      "makeNamePubliclyOffered(string,uint256)": {
        "notice": "Offers name to the public for specified amount of ether"
      },
      "setNamesIPAddress(string,string)": {
        "notice": "Sets name's corresponding IP address."
      },
      "transferOwnershipForFree(string,address)": {
        "notice": "lets msg.sender transfer ownership of one of their names to another address"
      }
    }
  }
}