{
  "contractName": "DNS",
  "abi": [
    {
      "constant": true,
      "inputs": [],
      "name": "owner",
      "outputs": [
        {
          "name": "",
          "type": "address"
        }
      ],
      "payable": false,
      "stateMutability": "view",
      "type": "function"
    },
    {
      "constant": true,
      "inputs": [],
      "name": "isOwner",
      "outputs": [
        {
          "name": "",
          "type": "bool"
        }
      ],
      "payable": false,
      "stateMutability": "view",
      "type": "function"
    },
    {
      "inputs": [],
      "payable": false,
      "stateMutability": "nonpayable",
      "type": "constructor"
    },
    {
      "anonymous": false,
      "inputs": [
        {
          "indexed": false,
          "name": "accountAddress",
          "type": "address"
        },
        {
          "indexed": false,
          "name": "acquiredString",
          "type": "string"
        }
      ],
      "name": "NewNameClaimed",
      "type": "event"
    },
    {
      "anonymous": false,
      "inputs": [
        {
          "indexed": false,
          "name": "name",
          "type": "string"
        },
        {
          "indexed": false,
          "name": "IPAddress",
          "type": "string"
        }
      ],
      "name": "NamesIPAddressChanged",
      "type": "event"
    },
    {
      "anonymous": false,
      "inputs": [
        {
          "indexed": false,
          "name": "name",
          "type": "string"
        },
        {
          "indexed": false,
          "name": "newOwner",
          "type": "address"
        }
      ],
      "name": "OwnershipTransfered",
      "type": "event"
    },
    {
      "anonymous": false,
      "inputs": [
        {
          "indexed": true,
          "name": "previousOwner",
          "type": "address"
        },
        {
          "indexed": true,
          "name": "newOwner",
          "type": "address"
        }
      ],
      "name": "OwnershipTransferred",
      "type": "event"
    },
    {
      "constant": false,
      "inputs": [],
      "name": "breakCircuit",
      "outputs": [],
      "payable": false,
      "stateMutability": "nonpayable",
      "type": "function"
    },
    {
      "constant": false,
      "inputs": [
        {
          "name": "_name",
          "type": "string"
        }
      ],
      "name": "claimNewName",
      "outputs": [],
      "payable": false,
      "stateMutability": "nonpayable",
      "type": "function"
    },
    {
      "constant": false,
      "inputs": [
        {
          "name": "_name",
          "type": "string"
        },
        {
          "name": "_address",
          "type": "string"
        }
      ],
      "name": "setNamesIPAddress",
      "outputs": [],
      "payable": false,
      "stateMutability": "nonpayable",
      "type": "function"
    },
    {
      "constant": true,
      "inputs": [
        {
          "name": "_name",
          "type": "string"
        }
      ],
      "name": "viewNamesIPAddress",
      "outputs": [
        {
          "name": "",
          "type": "string"
        }
      ],
      "payable": false,
      "stateMutability": "view",
      "type": "function"
    },
    {
      "constant": true,
      "inputs": [],
      "name": "listNamesOwnedBy",
      "outputs": [
        {
          "name": "",
          "type": "uint256[]"
        }
      ],
      "payable": false,
      "stateMutability": "view",
      "type": "function"
    },
    {
      "constant": true,
      "inputs": [
        {
          "name": "_id",
          "type": "uint256"
        }
      ],
      "name": "getNameByID",
      "outputs": [
        {
          "name": "",
          "type": "string"
        }
      ],
      "payable": false,
      "stateMutability": "view",
      "type": "function"
    },
    {
      "constant": false,
      "inputs": [
        {
          "name": "_name",
          "type": "string"
        },
        {
          "name": "_receiver",
          "type": "address"
        }
      ],
      "name": "transferOwnershipForFree",
      "outputs": [],
      "payable": false,
      "stateMutability": "nonpayable",
      "type": "function"
    },
    {
      "constant": false,
      "inputs": [
        {
          "name": "_name",
          "type": "string"
        }
      ],
      "name": "makeNameNotOffered",
      "outputs": [],
      "payable": false,
      "stateMutability": "nonpayable",
      "type": "function"
    },
    {
      "constant": false,
      "inputs": [
        {
          "name": "_name",
          "type": "string"
        },
        {
          "name": "_address",
          "type": "address"
        },
        {
          "name": "_wei",
          "type": "uint256"
        }
      ],
      "name": "makeNamePrivatlyOffered",
      "outputs": [],
      "payable": false,
      "stateMutability": "nonpayable",
      "type": "function"
    },
    {
      "constant": false,
      "inputs": [
        {
          "name": "_name",
          "type": "string"
        }
      ],
      "name": "acceptPrivateOffer",
      "outputs": [],
      "payable": true,
      "stateMutability": "payable",
      "type": "function"
    },
    {
      "constant": false,
      "inputs": [
        {
          "name": "_name",
          "type": "string"
        },
        {
          "name": "_wei",
          "type": "uint256"
        }
      ],
      "name": "makeNamePubliclyOffered",
      "outputs": [],
      "payable": false,
      "stateMutability": "nonpayable",
      "type": "function"
    },
    {
      "constant": false,
      "inputs": [
        {
          "name": "_name",
          "type": "string"
        }
      ],
      "name": "acceptPublicOffer",
      "outputs": [],
      "payable": true,
      "stateMutability": "payable",
      "type": "function"
    }
  ],
  "bytecode": "0x608060405234801561001057600080fd5b50336000806101000a81548173ffffffffffffffffffffffffffffffffffffffff021916908373ffffffffffffffffffffffffffffffffffffffff1602179055506000809054906101000a900473ffffffffffffffffffffffffffffffffffffffff1673ffffffffffffffffffffffffffffffffffffffff16600073ffffffffffffffffffffffffffffffffffffffff167f8be0079c531659141344cd1fd0a4f28419497f9722a3daafe3b4186f6b6457e060405160405180910390a360006005819055506000600660006101000a81548160ff021916908315150217905550613d64806100ff6000396000f3fe6080604052600436106100d0576000357c0100000000000000000000000000000000000000000000000000000000900463ffffffff1680630ce976f3146100d55780631fedc8b5146100ec5780632fdd4427146101585780633a67453214610213578063478fc86a146103725780634ffa41ac1461046457806350bfad451461052c57806367b4a818146105e05780636b0dd61d146106c85780637a04abe8146107905780637b396bc91461084b5780638da5cb5b1461098c5780638f32d59b146109e35780639664e5e614610a12575b600080fd5b3480156100e157600080fd5b506100ea610ae4565b005b3480156100f857600080fd5b50610101610b14565b6040518080602001828103825283818151815260200191508051906020019060200280838360005b83811015610144578082015181840152602081019050610129565b505050509050019250505060405180910390f35b6102116004803603602081101561016e57600080fd5b810190808035906020019064010000000081111561018b57600080fd5b82018360208201111561019d57600080fd5b803590602001918460018302840111640100000000831117156101bf57600080fd5b91908080601f016020809104026020016040519081016040528093929190818152602001838380828437600081840152601f19601f820116905080830192505050505050509192919290505050610d8f565b005b34801561021f57600080fd5b506103706004803603604081101561023657600080fd5b810190808035906020019064010000000081111561025357600080fd5b82018360208201111561026557600080fd5b8035906020019184600183028401116401000000008311171561028757600080fd5b91908080601f016020809104026020016040519081016040528093929190818152602001838380828437600081840152601f19601f820116905080830192505050505050509192919290803590602001906401000000008111156102ea57600080fd5b8201836020820111156102fc57600080fd5b8035906020019184600183028401116401000000008311171561031e57600080fd5b91908080601f016020809104026020016040519081016040528093929190818152602001838380828437600081840152601f19601f82011690508083019250505050505050919291929050505061164f565b005b34801561037e57600080fd5b506104626004803603606081101561039557600080fd5b81019080803590602001906401000000008111156103b257600080fd5b8201836020820111156103c457600080fd5b803590602001918460018302840111640100000000831117156103e657600080fd5b91908080601f016020809104026020016040519081016040528093929190818152602001838380828437600081840152601f19601f820116905080830192505050505050509192919290803573ffffffffffffffffffffffffffffffffffffffff16906020019092919080359060200190929190505050611ab9565b005b34801561047057600080fd5b5061052a6004803603602081101561048757600080fd5b81019080803590602001906401000000008111156104a457600080fd5b8201836020820111156104b657600080fd5b803590602001918460018302840111640100000000831117156104d857600080fd5b91908080601f016020809104026020016040519081016040528093929190818152602001838380828437600081840152601f19601f820116905080830192505050505050509192919290505050611fd8565b005b34801561053857600080fd5b506105656004803603602081101561054f57600080fd5b8101908080359060200190929190505050612345565b6040518080602001828103825283818151815260200191508051906020019080838360005b838110156105a557808201518184015260208101905061058a565b50505050905090810190601f1680156105d25780820380516001836020036101000a031916815260200191505b509250505060405180910390f35b3480156105ec57600080fd5b506106c66004803603604081101561060357600080fd5b810190808035906020019064010000000081111561062057600080fd5b82018360208201111561063257600080fd5b8035906020019184600183028401116401000000008311171561065457600080fd5b91908080601f016020809104026020016040519081016040528093929190818152602001838380828437600081840152601f19601f820116905080830192505050505050509192919290803573ffffffffffffffffffffffffffffffffffffffff1690602001909291905050506124c1565b005b3480156106d457600080fd5b5061078e600480360360208110156106eb57600080fd5b810190808035906020019064010000000081111561070857600080fd5b82018360208201111561071a57600080fd5b8035906020019184600183028401116401000000008311171561073c57600080fd5b91908080601f016020809104026020016040519081016040528093929190818152602001838380828437600081840152601f19601f8201169050808301925050505050505091929192905050506128c5565b005b610849600480360360208110156107a657600080fd5b81019080803590602001906401000000008111156107c357600080fd5b8201836020820111156107d557600080fd5b803590602001918460018302840111640100000000831117156107f757600080fd5b91908080601f016020809104026020016040519081016040528093929190818152602001838380828437600081840152601f19601f820116905080830192505050505050509192919290505050612e35565b005b34801561085757600080fd5b506109116004803603602081101561086e57600080fd5b810190808035906020019064010000000081111561088b57600080fd5b82018360208201111561089d57600080fd5b803590602001918460018302840111640100000000831117156108bf57600080fd5b91908080601f016020809104026020016040519081016040528093929190818152602001838380828437600081840152601f19601f82011690508083019250505050505050919291929050505061359c565b6040518080602001828103825283818151815260200191508051906020019080838360005b83811015610951578082015181840152602081019050610936565b50505050905090810190601f16801561097e5780820380516001836020036101000a031916815260200191505b509250505060405180910390f35b34801561099857600080fd5b506109a16137a2565b604051808273ffffffffffffffffffffffffffffffffffffffff1673ffffffffffffffffffffffffffffffffffffffff16815260200191505060405180910390f35b3480156109ef57600080fd5b506109f86137cb565b604051808215151515815260200191505060405180910390f35b348015610a1e57600080fd5b50610ae260048036036040811015610a3557600080fd5b8101908080359060200190640100000000811115610a5257600080fd5b820183602082011115610a6457600080fd5b80359060200191846001830284011164010000000083111715610a8657600080fd5b91908080601f016020809104026020016040519081016040528093929190818152602001838380828437600081840152601f19601f82011690508083019250505050505050919291929080359060200190929190505050613822565b005b610aec6137cb565b1515610af757600080fd5b6001600660006101000a81548160ff021916908315150217905550565b606080600160003373ffffffffffffffffffffffffffffffffffffffff1673ffffffffffffffffffffffffffffffffffffffff16815260200190815260200160002054604051908082528060200260200182016040528015610b855781602001602082028038833980820191505090505b509050600080905060008090505b600554811015610caa573373ffffffffffffffffffffffffffffffffffffffff166003600260008481526020019081526020016000206040518082805460018160011615610100020316600290048015610c245780601f10610c02576101008083540402835291820191610c24565b820191906000526020600020905b815481529060010190602001808311610c10575b5050915050908152602001604051809103902060000160009054906101000a900473ffffffffffffffffffffffffffffffffffffffff1673ffffffffffffffffffffffffffffffffffffffff161415610c9d57808383815181101515610c8657fe5b906020019060200201818152505081806001019250505b8080600101915050610b93565b50600160003373ffffffffffffffffffffffffffffffffffffffff1673ffffffffffffffffffffffffffffffffffffffff1681526020019081526020016000205481141515610d87576040517f08c379a000000000000000000000000000000000000000000000000000000000815260040180806020018281038252603e8152602001807f496e7465726e616c204572726f723a204e756d626572206f66206e616d65732081526020017f72657472696576656420213d206b6e6f776e206f776e6564206e616d6573000081525060400191505060405180910390fd5b819250505090565b60001515600660009054906101000a900460ff161515141515610e40576040517f08c379a000000000000000000000000000000000000000000000000000000000815260040180806020018281038252603b8152602001807f5468697320636f6e7472616374277320737461746520686173206265656e206681526020017f726f7a656e2062792074686520636f6e7472616374206f776e6572000000000081525060400191505060405180910390fd5b806001806002811115610e4f57fe5b6003836040518082805190602001908083835b602083101515610e875780518252602082019150602081019050602083039250610e62565b6001836020036101000a038019825116818451168082178552505050505050905001915050908152602001604051809103902060030160009054906101000a900460ff166002811115610ed657fe5b141515610f97576040517f08c379a00000000000000000000000000000000000000000000000000000000081526004018080602001828103825260438152602001807f6f666665725374617465206f66206e616d65206973206e6f742074686520737481526020017f617465206e656564656420746f20707265666f726d20746869732066756e637481526020017f696f6e000000000000000000000000000000000000000000000000000000000081525060600191505060405180910390fd5b823373ffffffffffffffffffffffffffffffffffffffff166003826040518082805190602001908083835b602083101515610fe75780518252602082019150602081019050602083039250610fc2565b6001836020036101000a038019825116818451168082178552505050505050905001915050908152602001604051809103902060050160009054906101000a900473ffffffffffffffffffffffffffffffffffffffff1673ffffffffffffffffffffffffffffffffffffffff161415156110ef576040517f08c379a00000000000000000000000000000000000000000000000000000000081526004018080602001828103825260408152602001807f6d73672e73656e646572206973206e6f742074686520617574686f72697a656481526020017f207265636569766572206f6620746869732070726976617465206f666665722e81525060400191505060405180910390fd5b6003846040518082805190602001908083835b6020831015156111275780518252602082019150602081019050602083039250611102565b6001836020036101000a0380198251168184511680821785525050505050509050019150509081526020016040518091039020600401548034101515156111d6576040517f08c379a00000000000000000000000000000000000000000000000000000000081526004018080602001828103825260188152602001807f416d6f756e7420706169642c206e6f7420656e6f7567682e000000000000000081525060200191505060405180910390fd5b8460006003876040518082805190602001908083835b60208310151561121157805182526020820191506020810190506020830392506111ec565b6001836020036101000a038019825116818451168082178552505050505050905001915050908152602001604051809103902060030160006101000a81548160ff0219169083600281111561126257fe5b0217905550600160006003886040518082805190602001908083835b6020831015156112a3578051825260208201915060208101905060208303925061127e565b6001836020036101000a038019825116818451168082178552505050505050905001915050908152602001604051809103902060000160009054906101000a900473ffffffffffffffffffffffffffffffffffffffff1673ffffffffffffffffffffffffffffffffffffffff1673ffffffffffffffffffffffffffffffffffffffff1681526020019081526020016000206000815480929190600190039190505550600160003373ffffffffffffffffffffffffffffffffffffffff1673ffffffffffffffffffffffffffffffffffffffff168152602001908152602001600020600081548092919060010191905055506003866040518082805190602001908083835b6020831015156113cc57805182526020820191506020810190506020830392506113a7565b6001836020036101000a038019825116818451168082178552505050505050905001915050908152602001604051809103902060000160009054906101000a900473ffffffffffffffffffffffffffffffffffffffff1673ffffffffffffffffffffffffffffffffffffffff166108fc6003886040518082805190602001908083835b602083101515611474578051825260208201915060208101905060208303925061144f565b6001836020036101000a0380198251168184511680821785525050505050509050019150509081526020016040518091039020600401549081150290604051600060405180830381858888f193505050501580156114d6573d6000803e3d6000fd5b50336003876040518082805190602001908083835b60208310151561151057805182526020820191506020810190506020830392506114eb565b6001836020036101000a038019825116818451168082178552505050505050905001915050908152602001604051809103902060000160006101000a81548173ffffffffffffffffffffffffffffffffffffffff021916908373ffffffffffffffffffffffffffffffffffffffff16021790555060006003826040518082805190602001908083835b6020831015156115be5780518252602082019150602081019050602083039250611599565b6001836020036101000a0380198251168184511680821785525050505050509050019150509081526020016040518091039020600401549050600081340390503373ffffffffffffffffffffffffffffffffffffffff166108fc829081150290604051600060405180830381858888f19350505050158015611644573d6000803e3d6000fd5b505050505050505050565b60001515600660009054906101000a900460ff161515141515611700576040517f08c379a000000000000000000000000000000000000000000000000000000000815260040180806020018281038252603b8152602001807f5468697320636f6e7472616374277320737461746520686173206265656e206681526020017f726f7a656e2062792074686520636f6e7472616374206f776e6572000000000081525060400191505060405180910390fd5b81600115156004826040518082805190602001908083835b60208310151561173d5780518252602082019150602081019050602083039250611718565b6001836020036101000a038019825116818451168082178552505050505050905001915050908152602001604051809103902060009054906101000a900460ff1615151415156117f5576040517f08c379a00000000000000000000000000000000000000000000000000000000081526004018080602001828103825260208152602001807f446f6d61696e206e616d65206e6f7420796574206265656e20636c61696d656481525060200191505060405180910390fd5b823373ffffffffffffffffffffffffffffffffffffffff166003826040518082805190602001908083835b6020831015156118455780518252602082019150602081019050602083039250611820565b6001836020036101000a038019825116818451168082178552505050505050905001915050908152602001604051809103902060000160009054906101000a900473ffffffffffffffffffffffffffffffffffffffff1673ffffffffffffffffffffffffffffffffffffffff16141515611927576040517f08c379a000000000000000000000000000000000000000000000000000000000815260040180806020018281038252601d8152602001807f596f7520617265206e6f742074686973206e616d652773206f776e657200000081525060200191505060405180910390fd5b826003856040518082805190602001908083835b602083101515611960578051825260208201915060208101905060208303925061193b565b6001836020036101000a038019825116818451168082178552505050505050905001915050908152602001604051809103902060020190805190602001906119a9929190613c93565b507fa986f10cfb83105a20df3e1307d4a528b680b6bc520feb9ee68ac76377160e308484604051808060200180602001838103835285818151815260200191508051906020019080838360005b83811015611a115780820151818401526020810190506119f6565b50505050905090810190601f168015611a3e5780820380516001836020036101000a031916815260200191505b50838103825284818151815260200191508051906020019080838360005b83811015611a77578082015181840152602081019050611a5c565b50505050905090810190601f168015611aa45780820380516001836020036101000a031916815260200191505b5094505050505060405180910390a150505050565b60001515600660009054906101000a900460ff161515141515611b6a576040517f08c379a000000000000000000000000000000000000000000000000000000000815260040180806020018281038252603b8152602001807f5468697320636f6e7472616374277320737461746520686173206265656e206681526020017f726f7a656e2062792074686520636f6e7472616374206f776e6572000000000081525060400191505060405180910390fd5b82600115156004826040518082805190602001908083835b602083101515611ba75780518252602082019150602081019050602083039250611b82565b6001836020036101000a038019825116818451168082178552505050505050905001915050908152602001604051809103902060009054906101000a900460ff161515141515611c5f576040517f08c379a00000000000000000000000000000000000000000000000000000000081526004018080602001828103825260208152602001807f446f6d61696e206e616d65206e6f7420796574206265656e20636c61696d656481525060200191505060405180910390fd5b833373ffffffffffffffffffffffffffffffffffffffff166003826040518082805190602001908083835b602083101515611caf5780518252602082019150602081019050602083039250611c8a565b6001836020036101000a038019825116818451168082178552505050505050905001915050908152602001604051809103902060000160009054906101000a900473ffffffffffffffffffffffffffffffffffffffff1673ffffffffffffffffffffffffffffffffffffffff16141515611d91576040517f08c379a000000000000000000000000000000000000000000000000000000000815260040180806020018281038252601d8152602001807f596f7520617265206e6f742074686973206e616d652773206f776e657200000081525060200191505060405180910390fd5b60006003866040518082805190602001908083835b602083101515611dcb5780518252602082019150602081019050602083039250611da6565b6001836020036101000a038019825116818451168082178552505050505050905001915050908152602001604051809103902060030160006101000a81548160ff02191690836002811115611e1c57fe5b0217905550826003866040518082805190602001908083835b602083101515611e5a5780518252602082019150602081019050602083039250611e35565b6001836020036101000a038019825116818451168082178552505050505050905001915050908152602001604051809103902060040181905550836003866040518082805190602001908083835b602083101515611ecd5780518252602082019150602081019050602083039250611ea8565b6001836020036101000a038019825116818451168082178552505050505050905001915050908152602001604051809103902060050160006101000a81548173ffffffffffffffffffffffffffffffffffffffff021916908373ffffffffffffffffffffffffffffffffffffffff16021790555060016003866040518082805190602001908083835b602083101515611f7b5780518252602082019150602081019050602083039250611f56565b6001836020036101000a038019825116818451168082178552505050505050905001915050908152602001604051809103902060030160006101000a81548160ff02191690836002811115611fcc57fe5b02179055505050505050565b60001515600660009054906101000a900460ff161515141515612089576040517f08c379a000000000000000000000000000000000000000000000000000000000815260040180806020018281038252603b8152602001807f5468697320636f6e7472616374277320737461746520686173206265656e206681526020017f726f7a656e2062792074686520636f6e7472616374206f776e6572000000000081525060400191505060405180910390fd5b80600115156004826040518082805190602001908083835b6020831015156120c657805182526020820191506020810190506020830392506120a1565b6001836020036101000a038019825116818451168082178552505050505050905001915050908152602001604051809103902060009054906101000a900460ff16151514151561217e576040517f08c379a00000000000000000000000000000000000000000000000000000000081526004018080602001828103825260208152602001807f446f6d61696e206e616d65206e6f7420796574206265656e20636c61696d656481525060200191505060405180910390fd5b813373ffffffffffffffffffffffffffffffffffffffff166003826040518082805190602001908083835b6020831015156121ce57805182526020820191506020810190506020830392506121a9565b6001836020036101000a038019825116818451168082178552505050505050905001915050908152602001604051809103902060000160009054906101000a900473ffffffffffffffffffffffffffffffffffffffff1673ffffffffffffffffffffffffffffffffffffffff161415156122b0576040517f08c379a000000000000000000000000000000000000000000000000000000000815260040180806020018281038252601d8152602001807f596f7520617265206e6f742074686973206e616d652773206f776e657200000081525060200191505060405180910390fd5b60006003846040518082805190602001908083835b6020831015156122ea57805182526020820191506020810190506020830392506122c5565b6001836020036101000a038019825116818451168082178552505050505050905001915050908152602001604051809103902060030160006101000a81548160ff0219169083600281111561233b57fe5b0217905550505050565b6060816005548110151561240d576040517f08c379a000000000000000000000000000000000000000000000000000000000815260040180806020018281038252604b8152602001807f52657175657374656420494420697320686967686572207468616e206375727281526020017f656e74206e756d626572206f6620636c61696d6564206e616d65732c206f722081526020017f6c657373207468616e203000000000000000000000000000000000000000000081525060600191505060405180910390fd5b600260008481526020019081526020016000208054600181600116156101000203166002900480601f0160208091040260200160405190810160405280929190818152602001828054600181600116156101000203166002900480156124b45780601f10612489576101008083540402835291602001916124b4565b820191906000526020600020905b81548152906001019060200180831161249757829003601f168201915b5050505050915050919050565b60001515600660009054906101000a900460ff161515141515612572576040517f08c379a000000000000000000000000000000000000000000000000000000000815260040180806020018281038252603b8152602001807f5468697320636f6e7472616374277320737461746520686173206265656e206681526020017f726f7a656e2062792074686520636f6e7472616374206f776e6572000000000081525060400191505060405180910390fd5b813373ffffffffffffffffffffffffffffffffffffffff166003826040518082805190602001908083835b6020831015156125c2578051825260208201915060208101905060208303925061259d565b6001836020036101000a038019825116818451168082178552505050505050905001915050908152602001604051809103902060000160009054906101000a900473ffffffffffffffffffffffffffffffffffffffff1673ffffffffffffffffffffffffffffffffffffffff161415156126a4576040517f08c379a000000000000000000000000000000000000000000000000000000000815260040180806020018281038252601d8152602001807f596f7520617265206e6f742074686973206e616d652773206f776e657200000081525060200191505060405180910390fd5b816003846040518082805190602001908083835b6020831015156126dd57805182526020820191506020810190506020830392506126b8565b6001836020036101000a038019825116818451168082178552505050505050905001915050908152602001604051809103902060000160006101000a81548173ffffffffffffffffffffffffffffffffffffffff021916908373ffffffffffffffffffffffffffffffffffffffff160217905550600160003373ffffffffffffffffffffffffffffffffffffffff1673ffffffffffffffffffffffffffffffffffffffff1681526020019081526020016000206000815480929190600190039190505550600160008373ffffffffffffffffffffffffffffffffffffffff1673ffffffffffffffffffffffffffffffffffffffff168152602001908152602001600020600081548092919060010191905055507fbaea0f128010226ee77abb3bb428f0f0b8cc14b5722c87a68cda777935ad65f6838360405180806020018373ffffffffffffffffffffffffffffffffffffffff1673ffffffffffffffffffffffffffffffffffffffff168152602001828103825284818151815260200191508051906020019080838360005b8381101561288557808201518184015260208101905061286a565b50505050905090810190601f1680156128b25780820380516001836020036101000a031916815260200191505b50935050505060405180910390a1505050565b60001515600660009054906101000a900460ff161515141515612976576040517f08c379a000000000000000000000000000000000000000000000000000000000815260040180806020018281038252603b8152602001807f5468697320636f6e7472616374277320737461746520686173206265656e206681526020017f726f7a656e2062792074686520636f6e7472616374206f776e6572000000000081525060400191505060405180910390fd5b80600115156004826040518082805190602001908083835b6020831015156129b3578051825260208201915060208101905060208303925061298e565b6001836020036101000a038019825116818451168082178552505050505050905001915050908152602001604051809103902060009054906101000a900460ff16151514151515612a92576040517f08c379a00000000000000000000000000000000000000000000000000000000081526004018080602001828103825260248152602001807f446f6d61696e206e616d652068617320616c7265616479206265656e20636c6181526020017f696d65640000000000000000000000000000000000000000000000000000000081525060400191505060405180910390fd5b60016004836040518082805190602001908083835b602083101515612acc5780518252602082019150602081019050602083039250612aa7565b6001836020036101000a038019825116818451168082178552505050505050905001915050908152602001604051809103902060006101000a81548160ff021916908315150217905550816002600060055481526020019081526020016000209080519060200190612b3f929190613c93565b50600560008154809291906001019190505550336003836040518082805190602001908083835b602083101515612b8b5780518252602082019150602081019050602083039250612b66565b6001836020036101000a038019825116818451168082178552505050505050905001915050908152602001604051809103902060000160006101000a81548173ffffffffffffffffffffffffffffffffffffffff021916908373ffffffffffffffffffffffffffffffffffffffff160217905550816003836040518082805190602001908083835b602083101515612c385780518252602082019150602081019050602083039250612c13565b6001836020036101000a03801982511681845116808217855250505050505090500191505090815260200160405180910390206001019080519060200190612c81929190613c93565b5060006003836040518082805190602001908083835b602083101515612cbc5780518252602082019150602081019050602083039250612c97565b6001836020036101000a038019825116818451168082178552505050505050905001915050908152602001604051809103902060030160006101000a81548160ff02191690836002811115612d0d57fe5b0217905550600160003373ffffffffffffffffffffffffffffffffffffffff1673ffffffffffffffffffffffffffffffffffffffff168152602001908152602001600020600081548092919060010191905055507f82a1fce00208e4f53d1a4ffab7104d4d71f997881859f9cacdd2521dc42969ff3383604051808373ffffffffffffffffffffffffffffffffffffffff1673ffffffffffffffffffffffffffffffffffffffff16815260200180602001828103825283818151815260200191508051906020019080838360005b83811015612df6578082015181840152602081019050612ddb565b50505050905090810190601f168015612e235780820380516001836020036101000a031916815260200191505b50935050505060405180910390a15050565b60001515600660009054906101000a900460ff161515141515612ee6576040517f08c379a000000000000000000000000000000000000000000000000000000000815260040180806020018281038252603b8152602001807f5468697320636f6e7472616374277320737461746520686173206265656e206681526020017f726f7a656e2062792074686520636f6e7472616374206f776e6572000000000081525060400191505060405180910390fd5b806002806002811115612ef557fe5b6003836040518082805190602001908083835b602083101515612f2d5780518252602082019150602081019050602083039250612f08565b6001836020036101000a038019825116818451168082178552505050505050905001915050908152602001604051809103902060030160009054906101000a900460ff166002811115612f7c57fe5b14151561303d576040517f08c379a00000000000000000000000000000000000000000000000000000000081526004018080602001828103825260438152602001807f6f666665725374617465206f66206e616d65206973206e6f742074686520737481526020017f617465206e656564656420746f20707265666f726d20746869732066756e637481526020017f696f6e000000000000000000000000000000000000000000000000000000000081525060600191505060405180910390fd5b6003836040518082805190602001908083835b6020831015156130755780518252602082019150602081019050602083039250613050565b6001836020036101000a038019825116818451168082178552505050505050905001915050908152602001604051809103902060040154803410151515613124576040517f08c379a00000000000000000000000000000000000000000000000000000000081526004018080602001828103825260188152602001807f416d6f756e7420706169642c206e6f7420656e6f7567682e000000000000000081525060200191505060405180910390fd5b8360006003866040518082805190602001908083835b60208310151561315f578051825260208201915060208101905060208303925061313a565b6001836020036101000a038019825116818451168082178552505050505050905001915050908152602001604051809103902060030160006101000a81548160ff021916908360028111156131b057fe5b0217905550600160006003876040518082805190602001908083835b6020831015156131f157805182526020820191506020810190506020830392506131cc565b6001836020036101000a038019825116818451168082178552505050505050905001915050908152602001604051809103902060000160009054906101000a900473ffffffffffffffffffffffffffffffffffffffff1673ffffffffffffffffffffffffffffffffffffffff1673ffffffffffffffffffffffffffffffffffffffff1681526020019081526020016000206000815480929190600190039190505550600160003373ffffffffffffffffffffffffffffffffffffffff1673ffffffffffffffffffffffffffffffffffffffff168152602001908152602001600020600081548092919060010191905055506003856040518082805190602001908083835b60208310151561331a57805182526020820191506020810190506020830392506132f5565b6001836020036101000a038019825116818451168082178552505050505050905001915050908152602001604051809103902060000160009054906101000a900473ffffffffffffffffffffffffffffffffffffffff1673ffffffffffffffffffffffffffffffffffffffff166108fc6003876040518082805190602001908083835b6020831015156133c2578051825260208201915060208101905060208303925061339d565b6001836020036101000a0380198251168184511680821785525050505050509050019150509081526020016040518091039020600401549081150290604051600060405180830381858888f19350505050158015613424573d6000803e3d6000fd5b50336003866040518082805190602001908083835b60208310151561345e5780518252602082019150602081019050602083039250613439565b6001836020036101000a038019825116818451168082178552505050505050905001915050908152602001604051809103902060000160006101000a81548173ffffffffffffffffffffffffffffffffffffffff021916908373ffffffffffffffffffffffffffffffffffffffff16021790555060006003826040518082805190602001908083835b60208310151561350c57805182526020820191506020810190506020830392506134e7565b6001836020036101000a0380198251168184511680821785525050505050509050019150509081526020016040518091039020600401549050600081340390503373ffffffffffffffffffffffffffffffffffffffff166108fc829081150290604051600060405180830381858888f19350505050158015613592573d6000803e3d6000fd5b5050505050505050565b606081600115156004826040518082805190602001908083835b6020831015156135db57805182526020820191506020810190506020830392506135b6565b6001836020036101000a038019825116818451168082178552505050505050905001915050908152602001604051809103902060009054906101000a900460ff161515141515613693576040517f08c379a00000000000000000000000000000000000000000000000000000000081526004018080602001828103825260208152602001807f446f6d61696e206e616d65206e6f7420796574206265656e20636c61696d656481525060200191505060405180910390fd5b6003836040518082805190602001908083835b6020831015156136cb57805182526020820191506020810190506020830392506136a6565b6001836020036101000a03801982511681845116808217855250505050505090500191505090815260200160405180910390206002018054600181600116156101000203166002900480601f0160208091040260200160405190810160405280929190818152602001828054600181600116156101000203166002900480156137955780601f1061376a57610100808354040283529160200191613795565b820191906000526020600020905b81548152906001019060200180831161377857829003601f168201915b5050505050915050919050565b60008060009054906101000a900473ffffffffffffffffffffffffffffffffffffffff16905090565b60008060009054906101000a900473ffffffffffffffffffffffffffffffffffffffff1673ffffffffffffffffffffffffffffffffffffffff163373ffffffffffffffffffffffffffffffffffffffff1614905090565b60001515600660009054906101000a900460ff1615151415156138d3576040517f08c379a000000000000000000000000000000000000000000000000000000000815260040180806020018281038252603b8152602001807f5468697320636f6e7472616374277320737461746520686173206265656e206681526020017f726f7a656e2062792074686520636f6e7472616374206f776e6572000000000081525060400191505060405180910390fd5b81600115156004826040518082805190602001908083835b60208310151561391057805182526020820191506020810190506020830392506138eb565b6001836020036101000a038019825116818451168082178552505050505050905001915050908152602001604051809103902060009054906101000a900460ff1615151415156139c8576040517f08c379a00000000000000000000000000000000000000000000000000000000081526004018080602001828103825260208152602001807f446f6d61696e206e616d65206e6f7420796574206265656e20636c61696d656481525060200191505060405180910390fd5b823373ffffffffffffffffffffffffffffffffffffffff166003826040518082805190602001908083835b602083101515613a1857805182526020820191506020810190506020830392506139f3565b6001836020036101000a038019825116818451168082178552505050505050905001915050908152602001604051809103902060000160009054906101000a900473ffffffffffffffffffffffffffffffffffffffff1673ffffffffffffffffffffffffffffffffffffffff16141515613afa576040517f08c379a000000000000000000000000000000000000000000000000000000000815260040180806020018281038252601d8152602001807f596f7520617265206e6f742074686973206e616d652773206f776e657200000081525060200191505060405180910390fd5b60006003856040518082805190602001908083835b602083101515613b345780518252602082019150602081019050602083039250613b0f565b6001836020036101000a038019825116818451168082178552505050505050905001915050908152602001604051809103902060030160006101000a81548160ff02191690836002811115613b8557fe5b0217905550826003856040518082805190602001908083835b602083101515613bc35780518252602082019150602081019050602083039250613b9e565b6001836020036101000a03801982511681845116808217855250505050505090500191505090815260200160405180910390206004018190555060026003856040518082805190602001908083835b602083101515613c375780518252602082019150602081019050602083039250613c12565b6001836020036101000a038019825116818451168082178552505050505050905001915050908152602001604051809103902060030160006101000a81548160ff02191690836002811115613c8857fe5b021790555050505050565b828054600181600116156101000203166002900490600052602060002090601f016020900481019282601f10613cd457805160ff1916838001178555613d02565b82800160010185558215613d02579182015b82811115613d01578251825591602001919060010190613ce6565b5b509050613d0f9190613d13565b5090565b613d3591905b80821115613d31576000816000905550600101613d19565b5090565b9056fea165627a7a7230582055292bcff735dde93dbcff2ebe9bc043e3f8b1ee56f9ba926469edc70ea34c0e0029",
  "source": "pragma solidity ^0.5.0;\n\nimport \"./ownable.sol\";\n\ncontract DNS is Ownable{\n\n    //\n    // State variables\n    //\n\n    mapping (address => uint) ownerNameCount;   //number of names in existance\n    mapping (uint => string) numberToName;   //(used to sort through all names)\n    mapping (string => DomainName) domainNames; //gets name items from name\n    mapping (string => bool) private claimed;   //stors wether a name has been claimed yet\n\n    enum OfferState {NotOffering, PrivateOffering, PublicOffering}\n\n    struct DomainName {\n        address payable owner;\n        string name;\n        string IPAddress;\n        OfferState offerState;\n        uint offerPrice;\n        address offerAddress;\n    }\n\n    uint numberOfClaimedNames;\n    bool circuitBroken;\n\n    //\n    // Events - publicize actions to external listeners\n    //\n\n    event NewNameClaimed(address accountAddress, string acquiredString);\n    event NamesIPAddressChanged(string name, string IPAddress);\n    event OwnershipTransfered(string name, address newOwner);\n\n    // \n    // Modifiers\n    // \n\n    modifier circuitNotBroken()\n    {\n        require(circuitBroken == false, \"This contract's state has been frozen by the contract owner\");\n        _;\n    }\n\n    modifier ownsName(string memory _name){\n        require(domainNames[_name].owner == msg.sender, \"You are not this name's owner\");\n        _;\n    }\n    modifier notClaimed(string memory _name){\n        require(claimed[_name] != true, \"Domain name has already been claimed\");\n        _;\n    }\n    modifier isClaimed(string memory _name){\n        require(claimed[_name] == true, \"Domain name not yet been claimed\");\n        _;\n    }\n    modifier idExists(uint _id){\n        require(_id < numberOfClaimedNames, \"Requested ID is higher than current number of claimed names, or less than 0\");\n        _;\n    }\n\n    modifier paidEnough(uint _price) {require(msg.value >= _price,\"Amount paid, not enough.\"); _;}\n\n    modifier checkValue(string memory _name) {\n        //refund them after pay for item (why it is before, _ checks for logic before func)\n        _;\n        uint _price = domainNames[_name].offerPrice;\n        uint amountToRefund = msg.value - _price;\n        msg.sender.transfer(amountToRefund);\n    }\n\n    modifier validReceiverOf(string memory _name)\n    {\n        require(domainNames[_name].offerAddress == msg.sender, \"msg.sender is not the authorized receiver of this private offer.\");\n        _;\n    }\n\n    modifier offerStateOfNameIs(string memory _name, OfferState _state)\n    {\n        require(domainNames[_name].offerState == _state, \"offerState of name is not the state needed to preform this function\");\n        _;\n    }\n\n    //\n    // Constructor\n    //\n\n    /** @notice Set the owner to the creator of this contract */\n    constructor() public {\n        numberOfClaimedNames = 0;\n        circuitBroken = false;\n    }\n\n    //\n    // Adminastrative Functions\n    //\n\n    /** @notice activates contract Circuit Breaker which stops most contract functions in case of emergency */\n    function breakCircuit()\n        external\n        onlyOwner()\n    {\n        circuitBroken = true;\n    }\n\n    //\n    // General Functions\n    //\n\n    /** @notice Gives msg.sender ownership of Domain Name if it's unclaimed\n        @param _name name of the domain which is attempting to be claimed\n     */\n    function claimNewName(string memory _name)\n        public\n        circuitNotBroken()\n        notClaimed(_name)\n    {\n        claimed[_name] = true;\n        numberToName[numberOfClaimedNames] = _name;     //order is important\n        numberOfClaimedNames++;                         //order is important\n        domainNames[_name].owner = msg.sender;\n        domainNames[_name].name = _name;\n        domainNames[_name].offerState = OfferState.NotOffering;\n        ownerNameCount[msg.sender]++;   \n        emit NewNameClaimed(msg.sender, _name);\n    }\n\n    /** @notice Sets name's corresponding IP address.\n        @param _name Name which is having it's corresponding IP address set.\n        @param _address IP Address which will be stored under specified name.\n     */\n    function setNamesIPAddress(string memory _name, string memory _address)\n        public\n        circuitNotBroken()\n        isClaimed(_name)\n        ownsName(_name)\n    {\n        domainNames[_name].IPAddress = _address;\n        emit NamesIPAddressChanged(_name, _address);\n    }\n\n    //\n    // View Functions\n    //\n\n    /** @notice Returns IP address of _name\n        @param  _name Name who's corresponding IP address is being returned\n        @return string The IP address of the given name\n    */\n    function viewNamesIPAddress(string memory _name)\n        public\n        view\n        isClaimed(_name)\n        returns(string memory)\n    {\n        return domainNames[_name].IPAddress;\n    }\n\n    /** @notice Returns list of uints, corresponding to all of msg.sender's owned Names \n        @return uint[] An array of IDs who's corresponding names are owned by msg.sender\n    */\n    function listNamesOwnedBy()\n        external\n        view\n        returns(uint[] memory)\n    {\n        uint[] memory owned = new uint[](ownerNameCount[msg.sender]);\n        uint count = 0;\n        for(uint i = 0; i < numberOfClaimedNames; i++){\n            if(domainNames[numberToName[i]].owner == msg.sender){\n                owned[count] = i;\n                count++;\n            }\n        }\n        require(count == ownerNameCount[msg.sender], \"Internal Error: Number of names retrieved != known owned names\");\n        return owned;\n    }\n\n    /** @notice returns the name of a corresponding ID\n        @param _id uint ID which corresponds to a name\n        @return string The name corresponding to the given ID\n    */\n    function getNameByID(uint _id)\n        external\n        view\n        idExists(_id)\n        returns(string memory)\n    {\n        return numberToName[_id];\n    }\n\n    //\n    // Transfer related Functions\n    //\n\n    /** @notice lets msg.sender transfer ownership of one of their names to another address\n        @param _name name of the address you are transfering ownership of\n        @param _receiver address you are transfering ownership of name to\n    */\n    function transferOwnershipForFree(string memory _name, address payable _receiver)\n        public\n        circuitNotBroken()\n        ownsName(_name)\n    {\n        domainNames[_name].owner = _receiver;\n        ownerNameCount[msg.sender]--;\n        ownerNameCount[_receiver]++;\n        emit OwnershipTransfered(_name, _receiver);\n    }\n\n    /** @notice Sets name to NotOffered for sale\n        @param _name Name who's offerStatus is being changed\n    */\n    function makeNameNotOffered(string memory _name)\n        public\n        circuitNotBroken()\n        isClaimed(_name)\n        ownsName(_name)\n    {\n        domainNames[_name].offerState = OfferState.NotOffering;  \n    }\n\n    /** @notice offers ownership of a name to specific address in exchange for specified amount of funds.\n        @param _name The Name who's ownership is being offered\n        @param _address The address who the name is being offered to\n        @param _wei The amount of Wei required for transfer of ownership\n    */\n    function makeNamePrivatlyOffered(string memory _name, address _address, uint _wei)\n        public\n        circuitNotBroken()\n        isClaimed(_name)\n        ownsName(_name)\n    {\n        domainNames[_name].offerState = OfferState.NotOffering;     //assure no one can buy while contract changes price\n        domainNames[_name].offerPrice = _wei;\n        domainNames[_name].offerAddress = _address;\n        domainNames[_name].offerState = OfferState.PrivateOffering;\n    }\n\n    /** @notice Receives required amount for offered name and transfer's ownership of name\n        @param _name Name who's ownership is being transfered\n    */\n    function acceptPrivateOffer(string memory _name)\n        public\n        payable\n        circuitNotBroken()\n        offerStateOfNameIs(_name, OfferState.PrivateOffering)   //make sure OfferState of name is PriavateOffering\n        validReceiverOf(_name)\n        paidEnough(domainNames[_name].offerPrice)\n        checkValue(_name)       //returns any extra funds\n    {\n        domainNames[_name].offerState = OfferState.NotOffering;\n        ownerNameCount[domainNames[_name].owner]--;\n        ownerNameCount[msg.sender]++;\n        domainNames[_name].owner.transfer(domainNames[_name].offerPrice);   //pays previous owner requested amount\n        domainNames[_name].owner = msg.sender;\n    }\n\n    /** @notice Offers name to the public for specified amount of ether\n        @param _name The Name who's ownership is being offered\n        @param _wei The amount of Wei required for transfer of ownership\n    */\n    function makeNamePubliclyOffered(string memory _name, uint _wei)\n        public\n        circuitNotBroken()\n        isClaimed(_name)\n        ownsName(_name)\n    {\n        domainNames[_name].offerState = OfferState.NotOffering;     //assure no one can buy while contract changes price\n        domainNames[_name].offerPrice = _wei;\n        domainNames[_name].offerState = OfferState.PublicOffering;\n    }\n\n    /** @notice receives requested funds for offered name and transferes ownership of name to msg.sender\n        @param _name Name who's ownership is being transfered\n    */\n    function acceptPublicOffer(string memory _name)\n        public\n        payable\n        circuitNotBroken()\n        offerStateOfNameIs(_name, OfferState.PublicOffering)   //make sure OfferState of name is PublicOffering\n        paidEnough(domainNames[_name].offerPrice)\n        checkValue(_name)       //returns any extra funds\n    {\n        domainNames[_name].offerState = OfferState.NotOffering;\n        ownerNameCount[domainNames[_name].owner]--;\n        ownerNameCount[msg.sender]++;\n        domainNames[_name].owner.transfer(domainNames[_name].offerPrice);   //pays previous owner requested amount\n        domainNames[_name].owner = msg.sender;\n    }\n}",
  "sourcePath": "/home/logan-king/Desktop/ConsenSys/FinalProject/contracts/DNS.sol",
  "compiler": {
    "name": "solc",
    "version": "0.5.0+commit.1d4f565a.Emscripten.clang"
  },
  "schemaVersion": "3.0.1",
  "updatedAt": "2019-01-28T09:38:25.724Z",
  "devdoc": {
    "methods": {
      "acceptPrivateOffer(string)": {
        "params": {
          "_name": "Name who's ownership is being transfered"
        }
      },
      "acceptPublicOffer(string)": {
        "params": {
          "_name": "Name who's ownership is being transfered"
        }
      },
      "claimNewName(string)": {
        "params": {
          "_name": "name of the domain which is attempting to be claimed"
        }
      },
      "getNameByID(uint256)": {
        "params": {
          "_id": "uint ID which corresponds to a name"
        },
        "return": "string The name corresponding to the given ID"
      },
      "isOwner()": {
        "return": "true if `msg.sender` is the owner of the contract."
      },
      "listNamesOwnedBy()": {
        "return": "uint[] An array of IDs who's corresponding names are owned by msg.sender"
      },
      "makeNameNotOffered(string)": {
        "params": {
          "_name": "Name who's offerStatus is being changed"
        }
      },
      "makeNamePrivatlyOffered(string,address,uint256)": {
        "params": {
          "_address": "The address who the name is being offered to",
          "_name": "The Name who's ownership is being offered",
          "_wei": "The amount of Wei required for transfer of ownership"
        }
      },
      "makeNamePubliclyOffered(string,uint256)": {
        "params": {
          "_name": "The Name who's ownership is being offered",
          "_wei": "The amount of Wei required for transfer of ownership"
        }
      },
      "owner()": {
        "return": "the address of the owner."
      },
      "setNamesIPAddress(string,string)": {
        "params": {
          "_address": "IP Address which will be stored under specified name.",
          "_name": "Name which is having it's corresponding IP address set."
        }
      },
      "transferOwnershipForFree(string,address)": {
        "params": {
          "_name": "name of the address you are transfering ownership of",
          "_receiver": "address you are transfering ownership of name to"
        }
      },
      "viewNamesIPAddress(string)": {
        "params": {
          "_name": "Name who's corresponding IP address is being returned"
        },
        "return": "string The IP address of the given name"
      }
    }
  },
  "userdoc": {
    "methods": {
      "acceptPrivateOffer(string)": {
        "notice": "Receives required amount for offered name and transfer's ownership of name"
      },
      "acceptPublicOffer(string)": {
        "notice": "receives requested funds for offered name and transferes ownership of name to msg.sender"
      },
      "breakCircuit()": {
        "notice": "activates contract Circuit Breaker which stops most contract functions in case of emergency "
      },
      "claimNewName(string)": {
        "notice": "Gives msg.sender ownership of Domain Name if it's unclaimed"
      },
      "constructor": "Set the owner to the creator of this contract ",
      "getNameByID(uint256)": {
        "notice": "returns the name of a corresponding ID"
      },
      "listNamesOwnedBy()": {
        "notice": "Returns list of uints, corresponding to all of msg.sender's owned Names "
      },
      "makeNameNotOffered(string)": {
        "notice": "Sets name to NotOffered for sale"
      },
      "makeNamePrivatlyOffered(string,address,uint256)": {
        "notice": "offers ownership of a name to specific address in exchange for specified amount of funds."
      },
      "makeNamePubliclyOffered(string,uint256)": {
        "notice": "Offers name to the public for specified amount of ether"
      },
      "setNamesIPAddress(string,string)": {
        "notice": "Sets name's corresponding IP address."
      },
      "transferOwnershipForFree(string,address)": {
        "notice": "lets msg.sender transfer ownership of one of their names to another address"
      },
      "viewNamesIPAddress(string)": {
        "notice": "Returns IP address of _name"
      }
    }
  }
}